{
  "_format": "hh-sol-artifact-1",
  "contractName": "StakingRewards",
  "sourceName": "contracts/staking.sol",
  "abi": [
    {
      "inputs": [
        {
          "internalType": "address",
          "name": "_rewardsDistribution",
          "type": "address"
        },
        {
          "internalType": "address",
          "name": "_rewardsToken",
          "type": "address"
        }
      ],
      "stateMutability": "nonpayable",
      "type": "constructor"
    },
    {
      "anonymous": false,
      "inputs": [
        {
          "indexed": true,
          "internalType": "address",
          "name": "previousOwner",
          "type": "address"
        },
        {
          "indexed": true,
          "internalType": "address",
          "name": "newOwner",
          "type": "address"
        }
      ],
      "name": "OwnershipTransferred",
      "type": "event"
    },
    {
      "anonymous": false,
      "inputs": [
        {
          "indexed": false,
          "internalType": "address",
          "name": "account",
          "type": "address"
        }
      ],
      "name": "Paused",
      "type": "event"
    },
    {
      "anonymous": false,
      "inputs": [
        {
          "indexed": false,
          "internalType": "address",
          "name": "token",
          "type": "address"
        },
        {
          "indexed": false,
          "internalType": "uint256",
          "name": "amount",
          "type": "uint256"
        }
      ],
      "name": "Recovered",
      "type": "event"
    },
    {
      "anonymous": false,
      "inputs": [
        {
          "indexed": false,
          "internalType": "uint256",
          "name": "reward",
          "type": "uint256"
        }
      ],
      "name": "RewardAdded",
      "type": "event"
    },
    {
      "anonymous": false,
      "inputs": [
        {
          "indexed": true,
          "internalType": "address",
          "name": "user",
          "type": "address"
        },
        {
          "indexed": false,
          "internalType": "uint256",
          "name": "reward",
          "type": "uint256"
        }
      ],
      "name": "RewardPaid",
      "type": "event"
    },
    {
      "anonymous": false,
      "inputs": [
        {
          "indexed": false,
          "internalType": "uint256",
          "name": "newDuration",
          "type": "uint256"
        }
      ],
      "name": "RewardsDurationUpdated",
      "type": "event"
    },
    {
      "anonymous": false,
      "inputs": [
        {
          "indexed": true,
          "internalType": "address",
          "name": "user",
          "type": "address"
        },
        {
          "indexed": false,
          "internalType": "address",
          "name": "token",
          "type": "address"
        },
        {
          "indexed": false,
          "internalType": "uint256",
          "name": "amount",
          "type": "uint256"
        }
      ],
      "name": "Staked",
      "type": "event"
    },
    {
      "anonymous": false,
      "inputs": [
        {
          "indexed": false,
          "internalType": "address",
          "name": "account",
          "type": "address"
        }
      ],
      "name": "Unpaused",
      "type": "event"
    },
    {
      "anonymous": false,
      "inputs": [
        {
          "indexed": true,
          "internalType": "address",
          "name": "user",
          "type": "address"
        },
        {
          "indexed": false,
          "internalType": "address",
          "name": "token",
          "type": "address"
        },
        {
          "indexed": false,
          "internalType": "uint256",
          "name": "amount",
          "type": "uint256"
        }
      ],
      "name": "Withdrawn",
      "type": "event"
    },
    {
      "inputs": [
        {
          "internalType": "address",
          "name": "_token",
          "type": "address"
        },
        {
          "internalType": "address",
          "name": "account",
          "type": "address"
        }
      ],
      "name": "balanceOf",
      "outputs": [
        {
          "internalType": "uint256",
          "name": "",
          "type": "uint256"
        }
      ],
      "stateMutability": "view",
      "type": "function"
    },
    {
      "inputs": [
        {
          "internalType": "address",
          "name": "_token",
          "type": "address"
        },
        {
          "internalType": "address",
          "name": "account",
          "type": "address"
        }
      ],
      "name": "earned",
      "outputs": [
        {
          "internalType": "uint256",
          "name": "",
          "type": "uint256"
        }
      ],
      "stateMutability": "view",
      "type": "function"
    },
    {
      "inputs": [
        {
          "internalType": "address",
          "name": "_token",
          "type": "address"
        }
      ],
      "name": "exit",
      "outputs": [],
      "stateMutability": "nonpayable",
      "type": "function"
    },
    {
      "inputs": [
        {
          "internalType": "address",
          "name": "_tokenAddress",
          "type": "address"
        }
      ],
      "name": "getReward",
      "outputs": [],
      "stateMutability": "nonpayable",
      "type": "function"
    },
    {
      "inputs": [],
      "name": "getRewardForDuration",
      "outputs": [
        {
          "internalType": "uint256",
          "name": "",
          "type": "uint256"
        }
      ],
      "stateMutability": "view",
      "type": "function"
    },
    {
      "inputs": [
        {
          "internalType": "address",
          "name": "_token",
          "type": "address"
        }
      ],
      "name": "isWhitelisted",
      "outputs": [
        {
          "internalType": "bool",
          "name": "",
          "type": "bool"
        }
      ],
      "stateMutability": "view",
      "type": "function"
    },
    {
      "inputs": [],
      "name": "lastTimeRewardApplicable",
      "outputs": [
        {
          "internalType": "uint256",
          "name": "",
          "type": "uint256"
        }
      ],
      "stateMutability": "view",
      "type": "function"
    },
    {
      "inputs": [],
      "name": "lastUpdateTime",
      "outputs": [
        {
          "internalType": "uint256",
          "name": "",
          "type": "uint256"
        }
      ],
      "stateMutability": "view",
      "type": "function"
    },
    {
      "inputs": [
        {
          "internalType": "uint256",
          "name": "reward",
          "type": "uint256"
        }
      ],
      "name": "notifyRewardAmount",
      "outputs": [],
      "stateMutability": "nonpayable",
      "type": "function"
    },
    {
      "inputs": [],
      "name": "owner",
      "outputs": [
        {
          "internalType": "address",
          "name": "",
          "type": "address"
        }
      ],
      "stateMutability": "view",
      "type": "function"
    },
    {
      "inputs": [],
      "name": "paused",
      "outputs": [
        {
          "internalType": "bool",
          "name": "",
          "type": "bool"
        }
      ],
      "stateMutability": "view",
      "type": "function"
    },
    {
      "inputs": [],
      "name": "periodFinish",
      "outputs": [
        {
          "internalType": "uint256",
          "name": "",
          "type": "uint256"
        }
      ],
      "stateMutability": "view",
      "type": "function"
    },
    {
      "inputs": [
        {
          "internalType": "address",
          "name": "tokenAddress",
          "type": "address"
        },
        {
          "internalType": "uint256",
          "name": "tokenAmount",
          "type": "uint256"
        }
      ],
      "name": "recoverERC20",
      "outputs": [],
      "stateMutability": "nonpayable",
      "type": "function"
    },
    {
      "inputs": [],
      "name": "renounceOwnership",
      "outputs": [],
      "stateMutability": "nonpayable",
      "type": "function"
    },
    {
      "inputs": [],
      "name": "rewardPerToken",
      "outputs": [
        {
          "internalType": "uint256",
          "name": "",
          "type": "uint256"
        }
      ],
      "stateMutability": "view",
      "type": "function"
    },
    {
      "inputs": [],
      "name": "rewardPerTokenStored",
      "outputs": [
        {
          "internalType": "uint256",
          "name": "",
          "type": "uint256"
        }
      ],
      "stateMutability": "view",
      "type": "function"
    },
    {
      "inputs": [],
      "name": "rewardRate",
      "outputs": [
        {
          "internalType": "uint256",
          "name": "",
          "type": "uint256"
        }
      ],
      "stateMutability": "view",
      "type": "function"
    },
    {
      "inputs": [
        {
          "internalType": "address",
          "name": "",
          "type": "address"
        }
      ],
      "name": "rewards",
      "outputs": [
        {
          "internalType": "uint256",
          "name": "",
          "type": "uint256"
        }
      ],
      "stateMutability": "view",
      "type": "function"
    },
    {
      "inputs": [],
      "name": "rewardsDistribution",
      "outputs": [
        {
          "internalType": "address",
          "name": "",
          "type": "address"
        }
      ],
      "stateMutability": "view",
      "type": "function"
    },
    {
      "inputs": [],
      "name": "rewardsDuration",
      "outputs": [
        {
          "internalType": "uint256",
          "name": "",
          "type": "uint256"
        }
      ],
      "stateMutability": "view",
      "type": "function"
    },
    {
      "inputs": [],
      "name": "rewardsToken",
      "outputs": [
        {
          "internalType": "contract IERC20",
          "name": "",
          "type": "address"
        }
      ],
      "stateMutability": "view",
      "type": "function"
    },
    {
      "inputs": [
        {
          "internalType": "address",
          "name": "_rewardsDistribution",
          "type": "address"
        }
      ],
      "name": "setRewardsDistribution",
      "outputs": [],
      "stateMutability": "nonpayable",
      "type": "function"
    },
    {
      "inputs": [
        {
          "internalType": "uint256",
          "name": "_rewardsDuration",
          "type": "uint256"
        }
      ],
      "name": "setRewardsDuration",
      "outputs": [],
      "stateMutability": "nonpayable",
      "type": "function"
    },
    {
      "inputs": [
        {
          "internalType": "address",
          "name": "_wallet",
          "type": "address"
        }
      ],
      "name": "setWalletAddress",
      "outputs": [],
      "stateMutability": "nonpayable",
      "type": "function"
    },
    {
      "inputs": [
        {
          "internalType": "address",
          "name": "_tokenAddress",
          "type": "address"
        },
        {
          "internalType": "uint256",
          "name": "amount",
          "type": "uint256"
        }
      ],
      "name": "stake",
      "outputs": [],
      "stateMutability": "nonpayable",
      "type": "function"
    },
    {
      "inputs": [],
      "name": "totalSupply",
      "outputs": [
        {
          "internalType": "uint256",
          "name": "",
          "type": "uint256"
        }
      ],
      "stateMutability": "view",
      "type": "function"
    },
    {
      "inputs": [
        {
          "internalType": "address",
          "name": "newOwner",
          "type": "address"
        }
      ],
      "name": "transferOwnership",
      "outputs": [],
      "stateMutability": "nonpayable",
      "type": "function"
    },
    {
      "inputs": [
        {
          "internalType": "address",
          "name": "_token",
          "type": "address"
        },
        {
          "internalType": "address",
          "name": "account",
          "type": "address"
        }
      ],
      "name": "updateReward",
      "outputs": [],
      "stateMutability": "nonpayable",
      "type": "function"
    },
    {
      "inputs": [
        {
          "internalType": "address",
          "name": "",
          "type": "address"
        }
      ],
      "name": "userRewardPerTokenPaid",
      "outputs": [
        {
          "internalType": "uint256",
          "name": "",
          "type": "uint256"
        }
      ],
      "stateMutability": "view",
      "type": "function"
    },
    {
      "inputs": [],
      "name": "walletAddress",
      "outputs": [
        {
          "internalType": "address",
          "name": "",
          "type": "address"
        }
      ],
      "stateMutability": "view",
      "type": "function"
    },
    {
      "inputs": [
        {
          "internalType": "address[]",
          "name": "_tokens",
          "type": "address[]"
        }
      ],
      "name": "whitelistTokens",
      "outputs": [],
      "stateMutability": "nonpayable",
      "type": "function"
    },
    {
      "inputs": [
        {
          "internalType": "uint256",
          "name": "",
          "type": "uint256"
        }
      ],
      "name": "whitelistedTokens",
      "outputs": [
        {
          "internalType": "address",
          "name": "",
          "type": "address"
        }
      ],
      "stateMutability": "view",
      "type": "function"
    },
    {
      "inputs": [
        {
          "internalType": "address",
          "name": "_tokenAddress",
          "type": "address"
        },
        {
          "internalType": "uint256",
          "name": "amount",
          "type": "uint256"
        }
      ],
      "name": "withdraw",
      "outputs": [],
      "stateMutability": "nonpayable",
      "type": "function"
    }
  ],
  "bytecode": "0x60806040526000600455600060055562278d006006553480156200002257600080fd5b506040516200186a3803806200186a833981016040819052620000459162000100565b620000503362000093565b60016002819055600380546001600160a81b0319166101006001600160a01b039485160217905580546001600160a01b0319169290911691909117905562000138565b600080546001600160a01b038381166001600160a01b0319831681178455604051919092169283917f8be0079c531659141344cd1fd0a4f28419497f9722a3daafe3b4186f6b6457e09190a35050565b80516001600160a01b0381168114620000fb57600080fd5b919050565b600080604083850312156200011457600080fd5b6200011f83620000e3565b91506200012f60208401620000e3565b90509250929050565b61172280620001486000396000f3fe608060405234801561001057600080fd5b50600436106101fb5760003560e01c80638980f11f1161011a578063cc1a378f116100ad578063df136d651161007c578063df136d6514610411578063ebe2b12b1461041a578063f2fde38b14610423578063f3fef3a314610436578063f7888aec1461044957600080fd5b8063cc1a378f146103cb578063cd3daf9d146103de578063d1af0c7d146103e6578063d230af3a146103fe57600080fd5b8063adc9772e116100e9578063adc9772e14610389578063b42652e91461039c578063c00007b0146103af578063c8f33c91146103c257600080fd5b80638980f11f146103325780638b876347146103455780638da5cb5b14610365578063ac1a386a1461037657600080fd5b80633c6b16ab116101925780636ad5b3ea116101615780636ad5b3ea14610306578063715018a6146103195780637b0a47ee1461032157806380faa57d1461032a57600080fd5b80633c6b16ab146102c25780633fc6df6e146102d55780634cb1e9e3146102e85780635c975abb146102fb57600080fd5b8063211dc32d116101ce578063211dc32d146102585780632154bc441461026b578063386a9525146102965780633af32abf1461029f57600080fd5b80630700037d1461020057806318160ddd14610233578063197621431461023b5780631c1f78eb14610250575b600080fd5b61022061020e366004611442565b600c6020526000908152604090205481565b6040519081526020015b60405180910390f35b600d54610220565b61024e610249366004611442565b610482565b005b6102206104ac565b61022061026636600461145d565b6104ca565b61027e610279366004611551565b610556565b6040516001600160a01b03909116815260200161022a565b61022060065481565b6102b26102ad366004611442565b610580565b604051901515815260200161022a565b61024e6102d0366004611551565b6105ea565b60015461027e906001600160a01b031681565b61024e6102f63660046114ba565b610800565b60035460ff166102b2565b60095461027e906001600160a01b031681565b61024e610825565b61022060055481565b610220610839565b61024e610340366004611490565b610847565b610220610353366004611442565b600b6020526000908152604090205481565b6000546001600160a01b031661027e565b61024e610384366004611442565b61098e565b61024e610397366004611490565b610a00565b61024e6103aa366004611442565b610b78565b61024e6103bd366004611442565b610bb3565b61022060075481565b61024e6103d9366004611551565b610c61565b610220610d4c565b60035461027e9061010090046001600160a01b031681565b61024e61040c36600461145d565b610d98565b61022060085481565b61022060045481565b61024e610431366004611442565b610df6565b61024e610444366004611490565b610e6c565b61022061045736600461145d565b6001600160a01b039182166000908152600e6020908152604080832093909416825291909152205490565b61048a610f66565b600180546001600160a01b0319166001600160a01b0392909216919091179055565b60006104c5600654600554610fc090919063ffffffff16565b905090565b6001600160a01b0381166000908152600c6020908152604080832054600b90925282205461054f919061054990670de0b6b3a7640000906105439061051790610511610d4c565b90610fcc565b6001600160a01b03808a166000908152600e60209081526040808320938c168352929052205490610fc0565b90610fd8565b90610fe4565b9392505050565b600a818154811061056657600080fd5b6000918252602090912001546001600160a01b0316905081565b6000805b600a548110156105e157826001600160a01b0316600a82815481106105ab576105ab6116d6565b6000918252602090912001546001600160a01b031614156105cf5750600192915050565b806105d9816116a5565b915050610584565b50600092915050565b6001546001600160a01b0316331461065c5760405162461bcd60e51b815260206004820152602a60248201527f43616c6c6572206973206e6f742052657761726473446973747269627574696f6044820152691b8818dbdb9d1c9858dd60b21b60648201526084015b60405180910390fd5b610667600080610d98565b60045442106106865760065461067e908290610fd8565b6005556106c9565b6004546000906106969042610fcc565b905060006106af60055483610fc090919063ffffffff16565b6006549091506106c3906105438584610fe4565b60055550505b6003546040516370a0823160e01b815230600482015260009161010090046001600160a01b0316906370a082319060240160206040518083038186803b15801561071257600080fd5b505afa158015610726573d6000803e3d6000fd5b505050506040513d601f19601f8201168201806040525081019061074a919061156a565b905061076160065482610fd890919063ffffffff16565b60055411156107b25760405162461bcd60e51b815260206004820152601860248201527f50726f76696465642072657761726420746f6f206869676800000000000000006044820152606401610653565b4260078190556006546107c59190610fe4565b6004556040518281527fde88a922e0d3b88b24e9623efeb464919c6bf9f66857a65e2bfcf2ce87a9433d906020015b60405180910390a15050565b610808610f66565b610814600a6000611390565b610820600a83836113ae565b505050565b61082d610f66565b6108376000610ff0565b565b60006104c542600454611040565b61084f610f66565b6003546001600160a01b038381166101009092041614156108c85760405162461bcd60e51b815260206004820152602d60248201527f43616e6e6f7420776974686472617720746865207374616b696e67206f72207260448201526c65776172647320746f6b656e7360981b6064820152608401610653565b60005b600a5481101561092457826001600160a01b0316600a82815481106108f2576108f26116d6565b6000918252602090912001546001600160a01b0316141561091257505050565b8061091c816116a5565b9150506108cb565b5061094b61093a6000546001600160a01b031690565b6001600160a01b0384169083611056565b604080516001600160a01b0384168152602081018390527f8c1256b8896378cd5044f80c202f9772b9d77dc85c8a6eb51967210b09bfaa2891016107f4565b5050565b610996610f66565b6001600160a01b0381166109de5760405162461bcd60e51b815260206004820152600f60248201526e496e76616c6964206164647265737360881b6044820152606401610653565b600980546001600160a01b0319166001600160a01b0392909216919091179055565b600280541415610a225760405162461bcd60e51b8152600401610653906115d2565b60028055610a2e6110b9565b60008111610a6f5760405162461bcd60e51b815260206004820152600e60248201526d043616e6e6f74207374616b6520360941b6044820152606401610653565b610a798233610d98565b610a8282610580565b610ac65760405162461bcd60e51b8152602060048201526015602482015274151bdad95b881b9bdd081dda1a5d195b1a5cdd1959605a1b6044820152606401610653565b600d54610ad39082610fe4565b600d556001600160a01b0382166000908152600e6020908152604080832033845290915281208054839290610b09908490611609565b9091555050600954610b2a906001600160a01b0384811691339116846110ff565b604080516001600160a01b03841681526020810183905233917f5dac0c1b1112564a045ba943c9d50270893e8e826c49be8e7073adc713ab7bd791015b60405180910390a250506001600255565b6001600160a01b0381166000908152600e60209081526040808320338452909152902054610ba7908290610e6c565b610bb081610bb3565b50565b600280541415610bd55760405162461bcd60e51b8152600401610653906115d2565b60028055610be38133610d98565b336000908152600c60205260409020548015610c5857336000818152600c6020526040812055600354610c26916101009091046001600160a01b03169083611056565b60405181815233907fe2403640ba68fed3a2f88b7557551d1993f84b99bb10ff833f0cf8db0c5e048690602001610b67565b50506001600255565b610c69610f66565b6004541580610c79575060045442115b610d115760405162461bcd60e51b815260206004820152605860248201527f50726576696f7573207265776172647320706572696f64206d7573742062652060448201527f636f6d706c657465206265666f7265206368616e67696e67207468652064757260648201527f6174696f6e20666f7220746865206e657720706572696f640000000000000000608482015260a401610653565b60068190556040518181527ffb46ca5a5e06d4540d6387b930a7c978bce0db5f449ec6b3f5d07c6e1d44f2d39060200160405180910390a150565b6000600d5460001415610d60575060085490565b6104c5610d8f600d54610543670de0b6b3a7640000610d89600554610d89600754610511610839565b90610fc0565b60085490610fe4565b610da0610d4c565b600855610dab610839565b6007556001600160a01b0381161561098a57610dc782826104ca565b6001600160a01b0382166000908152600c6020908152604080832093909355600854600b909152919020555050565b610dfe610f66565b6001600160a01b038116610e635760405162461bcd60e51b815260206004820152602660248201527f4f776e61626c653a206e6577206f776e657220697320746865207a65726f206160448201526564647265737360d01b6064820152608401610653565b610bb081610ff0565b600280541415610e8e5760405162461bcd60e51b8152600401610653906115d2565b6002805580610ed35760405162461bcd60e51b8152602060048201526011602482015270043616e6e6f74207769746864726177203607c1b6044820152606401610653565b610edd8233610d98565b600d54610eea9082610fcc565b600d556001600160a01b0382166000908152600e6020908152604080832033845290915281208054839290610f20908490611662565b9091555050604080516001600160a01b03841681526020810183905233917fd1c19fbcd4551a5edfb66d43d2e337c04837afda3482b42bdf569a8fccdae5fb9101610b67565b6000546001600160a01b031633146108375760405162461bcd60e51b815260206004820181905260248201527f4f776e61626c653a2063616c6c6572206973206e6f7420746865206f776e65726044820152606401610653565b600061054f8284611643565b600061054f8284611662565b600061054f8284611621565b600061054f8284611609565b600080546001600160a01b038381166001600160a01b0319831681178455604051919092169283917f8be0079c531659141344cd1fd0a4f28419497f9722a3daafe3b4186f6b6457e09190a35050565b600081831061104f578161054f565b5090919050565b6040516001600160a01b03831660248201526044810182905261082090849063a9059cbb60e01b906064015b60408051601f198184030181529190526020810180516001600160e01b03166001600160e01b03199093169290921790915261113d565b60035460ff16156108375760405162461bcd60e51b815260206004820152601060248201526f14185d5cd8589b194e881c185d5cd95960821b6044820152606401610653565b6040516001600160a01b03808516602483015283166044820152606481018290526111379085906323b872dd60e01b90608401611082565b50505050565b6000611192826040518060400160405280602081526020017f5361666545524332303a206c6f772d6c6576656c2063616c6c206661696c6564815250856001600160a01b031661120f9092919063ffffffff16565b80519091501561082057808060200190518101906111b0919061152f565b6108205760405162461bcd60e51b815260206004820152602a60248201527f5361666545524332303a204552433230206f7065726174696f6e20646964206e6044820152691bdd081cdd58d8d9595960b21b6064820152608401610653565b606061121e8484600085611226565b949350505050565b6060824710156112875760405162461bcd60e51b815260206004820152602660248201527f416464726573733a20696e73756666696369656e742062616c616e636520666f6044820152651c8818d85b1b60d21b6064820152608401610653565b6001600160a01b0385163b6112de5760405162461bcd60e51b815260206004820152601d60248201527f416464726573733a2063616c6c20746f206e6f6e2d636f6e74726163740000006044820152606401610653565b600080866001600160a01b031685876040516112fa9190611583565b60006040518083038185875af1925050503d8060008114611337576040519150601f19603f3d011682016040523d82523d6000602084013e61133c565b606091505b509150915061134c828286611357565b979650505050505050565b6060831561136657508161054f565b8251156113765782518084602001fd5b8160405162461bcd60e51b8152600401610653919061159f565b5080546000825590600052602060002090810190610bb09190611411565b828054828255906000526020600020908101928215611401579160200282015b828111156114015781546001600160a01b0319166001600160a01b038435161782556020909201916001909101906113ce565b5061140d929150611411565b5090565b5b8082111561140d5760008155600101611412565b80356001600160a01b038116811461143d57600080fd5b919050565b60006020828403121561145457600080fd5b61054f82611426565b6000806040838503121561147057600080fd5b61147983611426565b915061148760208401611426565b90509250929050565b600080604083850312156114a357600080fd5b6114ac83611426565b946020939093013593505050565b600080602083850312156114cd57600080fd5b823567ffffffffffffffff808211156114e557600080fd5b818501915085601f8301126114f957600080fd5b81358181111561150857600080fd5b8660208260051b850101111561151d57600080fd5b60209290920196919550909350505050565b60006020828403121561154157600080fd5b8151801515811461054f57600080fd5b60006020828403121561156357600080fd5b5035919050565b60006020828403121561157c57600080fd5b5051919050565b60008251611595818460208701611679565b9190910192915050565b60208152600082518060208401526115be816040850160208701611679565b601f01601f19169190910160400192915050565b6020808252601f908201527f5265656e7472616e637947756172643a207265656e7472616e742063616c6c00604082015260600190565b6000821982111561161c5761161c6116c0565b500190565b60008261163e57634e487b7160e01b600052601260045260246000fd5b500490565b600081600019048311821515161561165d5761165d6116c0565b500290565b600082821015611674576116746116c0565b500390565b60005b8381101561169457818101518382015260200161167c565b838111156111375750506000910152565b60006000198214156116b9576116b96116c0565b5060010190565b634e487b7160e01b600052601160045260246000fd5b634e487b7160e01b600052603260045260246000fdfea264697066735822122014f7e37138c66968b94b9774e7e4e63ec009cfac0324ad35324013ef58b7984664736f6c63430008070033",
  "linkReferences": {},
  "deployedLinkReferences": {}
}